:020000040800F2
:10000000A8080020AD0100080D0300080503000842
:1000100009030008FF02000855070008000000005F
:10002000000000000000000000000000750600084D
:100030000303000800000000A5040008770600087C
:10004000C7010008C7010008C7010008C701000870
:10005000C7010008C7010008C7010008C701000860
:10006000C7010008C7010008C7010008C701000850
:10007000C7010008C7010008C7010008C701000840
:10008000C7010008C701000800000000C701000800
:10009000C7010008C7010008C7010008C701000820
:1000A000C7010008C7010008C7010008C701000810
:1000B000C701000800000000C701000800000000A0
:1000C000C701000800000000C7010008C7010008C0
:1000D000C7010008C7010008C701000800000000B0
:1000E0000000000000000000C70100080000000040
:1000F0000000000000000000000000000000000000
:10010000C70100080000000000000000C70100084F
:1001100000F002F800F03AF80AA090E8000C8244DF
:100120008344AAF10107DA4501D100F02FF8AFF2BC
:10013000090EBAE80F0013F0010F18BFFB1A43F0C5
:10014000010318477018000090180000103A24BFEF
:1001500078C878C1FAD8520724BF30C830C144BF2C
:1001600004680C607047000000230024002500266E
:10017000103A28BF78C1FBD8520728BF30C148BF0A
:100180000B6070471FB51FBD10B510BD00F031F8F2
:100190001146FFF7F7FF00F033FD00F04FF803B40E
:1001A000FFF7F2FF03BC00F057F800000948804752
:1001B00009480047FEE7FEE7FEE7FEE7FEE7FEE749
:1001C000FEE7FEE7FEE7FEE704480549054A064B61
:1001D000704700007906000811010008A8000020FF
:1001E000A8080020A8040020A80400207047704739
:1001F0007047754600F02CF8AE4605006946534638
:1002000020F00700854618B020B5FFF7DDFFBDE8F8
:1002100020404FF000064FF000074FF000084FF06D
:10022000000B21F00701AC46ACE8C009ACE8C009FE
:10023000ACE8C009ACE8C0098D46704710B504466B
:10024000AFF300802046BDE81040FFF7A8BF0000D4
:10025000004870474800002001491820ABBEFEE767
:1002600026000200704710B500F0E0FA012000F00F
:10027000B1FB022000F032FB00F0A6FB10BD10B570
:1002800040F2115000F086FD0223002203214FF0BE
:10029000904000F06DFC10BD10B540F2096000F018
:1002A00079FD032000F02AFD002000F0A3FA0121CF
:1002B000084600F06FFA4FF46021012000F0EEFADA
:1002C000012000F087FB0021012000F0BDFA002191
:1002D0004FF4807000F094FB0021022000F090FBAE
:1002E00007220121002000F001FB00F095FA00F048
:1002F0009DFA0A2000F0C4FB00F02EFA10BD00BFEA
:10030000FEE7704700BFFEE700BFFEE77047000052
:100310002DE9F04704460D462946606A01F0D0FAFF
:10032000E0602168E06801F0CDF98046E16860692D
:1003300001F030F860616168606901F0C3F98146DD
:10034000D4E9030101F0BCFA0746A16801F0BAF94B
:100350000646D4E9050101F081FA02D2A069606184
:100360000CE0A06980F000473846616901F076FA38
:1003700004D21548A16901F0A3FA606149464046DC
:1003800001F008F80746314601F004F8E061D4E9CD
:10039000070101F063FA02D2206AE0610BE0206AF3
:1003A00080F000473846E16901F058FA03D2206A2C
:1003B00080F00040E061E0682061E169A06A00F03F
:1003C000E9FFA062BDE8F0874802804E30B5DDE964
:1003D00003450160426083608461056230BD0000B6
:1003E00070B588B004460D46164640F2125000F033
:1003F000D1FC202300220221284800F0B9FB202351
:1004000003220021254800F0DAFB202201212348A5
:1004100000F076FB40F2017000F0BCFC204800F0D8
:10042000E3FEADF800400020ADF80200ADF8040096
:100430000295ADF806008DF80C006946184800F0EA
:1004400047FF012004900020ADF81400ADF816001D
:10045000ADF81800ADF81A00ADF81C0004AA01218F
:100460000F4800F04FFD324601210D4800F07BFEA1
:10047000702201210A4800F049FE002201210848AB
:1004800000F084FE0121064800F078FF044800F0E7
:1004900033FD034800F016FF08B070BD00040048AB
:1004A0000004004070472DE9F04104460026002773
:1004B000002544F62060B4FBF0F0860944F6206085
:1004C000B4FBF0F0402101FB16073D4345EAC61599
:1004D0002946012000F034F8BDE8F08110B540F263
:1004E000115000F057FC0123002219464FF09040B4
:1004F00000F03EFB0123032200214FF0904000F06A
:100500005EFB01214FF0904000F02BFB40F21250B7
:1005100000F040FC2023002201214FF0904000F029
:1005200027FB2023032200214FF0904000F047FBDF
:100530002021024800F013FB10BD00000004004819
:100540002DE9F04105460E46002405F00F00044356
:1005500044F01004C6F3130044EA40140821144880
:1005600000F0FDFA00271AE004F0010020B110218C
:100570000F4800F0F6FA03E010210D4800F0EFFA02
:100580004FF400414FF0904000F0EBFA4FF400417F
:100590004FF0904000F0E3FA6408781CC7B2192FBE
:1005A000E2DB0821024800F0DCFABDE8F08100003F
:1005B0000004004810B5044622461021014800F00E
:1005C000D2FA10BD0004004810B5044622460821A6
:1005D000014800F0C8FA10BD0004004810B50446F8
:1005E00022464FF400414FF0904000F0BCFA10BD9D
:1005F00010B50120FFF7E8FF10BD000010B540F274
:10060000115000F0C7FB40F2125000F0C3FB4FF452
:100610000043002201214FF0904000F0A9FA082386
:1006200000220121124800F0A3FA10230022012128
:100630000F4800F09DFA4FF40043032200214FF0D1
:10064000904000F0BCFA082303220021084800F083
:10065000B6FA102303220021054800F0B0FAFFF794
:10066000C7FF0020FFF7BAFF0120FFF7A3FF10BD6F
:10067000000400487047704708B53248006840F0F1
:1006800001003049086000BF2E48006800F00200F9
:100690000028F9D000BF2B48406840F0800029496D
:1006A00048600020009002E00098401C00900098F4
:1006B0005028F9D32348406840F090002149486011
:1006C0000020009002E00098401C00900098502804
:1006D000F9D300BF1B48406820F003001949486067
:1006E00008460068184908401649086008464068EE
:1006F00016490840134948600846406814490840B4
:10070000104948600846406820F4400048600846A8
:10071000C06A20F00F00C8620846006B40F2431127
:100720008843084908630846406B20F0010048638D
:100730000020886000F0A6FB00214FF0006000F070
:10074000CBFA08BD00100240FFFFF2FE0C00FF08CC
:10075000FFFFC0F700BFFEE70D48006840F008004B
:100760000B49086000BF0A48006800F00800002834
:10077000F9D10748006840F004000549086000BF4F
:100780000348006800F004000028F9D17047000019
:100790000824014010B5012802D0022825D110E01C
:1007A000134A126822F47002114B1A601A4612683A
:1007B0004B1E4FF4700404EA03531A430C4B1A60A7
:1007C00014E00B4A0C32126822F44012084B0C332E
:1007D0001A601A4612684B1E4FF4401404EA035381
:1007E0001A43034B0C331A6000E000BF00BF10BD7A
:1007F0002C24014030B10749096841F40061054AE1
:10080000116005E00349096821F40061014A1160A3
:1008100070470000082401400348006820F48070FD
:10082000014908607047000008240140054800683D
:1008300000F0010028B90348006840F001000149B8
:10084000086070470824014091B100F001022AB10C
:10085000114A126842F480120F4B1A6000F0020233
:10086000C2B10D4A126842F400420B4B1A6011E00B
:1008700000F001022AB1084A126822F48012064BE5
:100880001A6000F002022AB1034A126822F4004200
:10089000014B1A607047000008240140012802D073
:1008A000022816D10AE00C4A126822F460220A4B90
:1008B0001A601A4612680A431A600BE0064A126868
:1008C00022F4E042044B1A601A4612680A431A6086
:1008D00000E000BF00BF70470824014002490968DA
:1008E0008143014A116070470024014070B51446ED
:1008F000122900D1002106280ED2324D2A6800EBC1
:1009000080061F25B540AA4300EB800501FA05F5D6
:100910002A432C4D2A602AE00C2812D2294D2D1F83
:100920002A68851F05EB85061F25B540AA43851F4C
:1009300005EB850501FA05F52A43224D2D1F2A6096
:1009400015E0102813D21F4D083D2A68A0F10C05B0
:1009500005EB85061F25B540AA43A0F10C0505EB64
:10096000850501FA05F52A43164D083D2A600A2936
:1009700010D2144D243D2B6801EB41060725B540EC
:10098000AB4301EB410504FA05F52B430D4D243D26
:100990002B6015E0122913D20A4D283D2B68A1F1D6
:1009A0000A0505EB45060725B540AB43A1F10A054D
:1009B00005EB450504FA05F52B43024D283D2B6058
:1009C00070BD0000342401400148006880B27047C7
:1009D0004C24014000F0010129B10849096841F4A3
:1009E0008001064A116000F0020129B1034909683B
:1009F00041F40011014A11607047000008240140D1
:100A0000E9B100F480722AB11C4A126842F4807283
:100A10001A4B1A6000F480622AB1184A126842F434
:100A20008062164B1A6000F002022AB3134A121DAC
:100A3000126842F00202114B1B1D1A601CE000F408
:100A400080722AB10D4A126822F480720B4B1A6030
:100A500000F480622AB1094A126822F48062074BCE
:100A60001A6000F002023AB1044A121D126822F024
:100A70000202024B1B1D1A60704700000424014053
:100A80002DE9F0410546284600F0D4FD07461348FD
:100A90000168384600F016FE064600F0ABFD4FF048
:100AA000E0214861002088610120086100BF4FF00B
:100AB000E020046904F0010018B104F4803000283B
:100AC000F5D04FF0E020006920F001004FF0E02168
:100AD000086100208861BDE8F08100001800002056
:100AE000002107E042F6E06100BF0A1EA1F1010308
:100AF00099B2FAD1021EA0F1010398B2F2D1704767
:100B0000F0B503461C6A5D6A00200DE001268640B0
:100B100016403EB187000F26BE40B443860001FA5E
:100B200006F63443461CB0B20828EFD3082011E083
:100B30000126864016405EB1A0F10806B7000F26D8
:100B4000BE40B543A0F10806B60001FA06F63543EB
:100B5000461CB0B21028EBD31C625D62F0BD81620E
:100B60007047816170470AB1816100E0816270471E
:100B7000F0B504460D4616462168E268002019E0EB
:100B8000012787401F409FB14FEA400C032707FA17
:100B90000CF7B943470005FA07F739434FEA400C11
:100BA000032707FA0CF7BA43470006FA07F73A4358
:100BB000471CB8B21028E3D32160E260F0BDF0B565
:100BC0000C461546012C03D146681E43466002E0E0
:100BD00046689E434660826800210DE001268E40F3
:100BE0001E403EB14F000326BE40B2434E0005FA00
:100BF00006F632434E1CB1B21029EFD38260F0BD2D
:100C00001CB500F057F9FFF7F9FCFFF767FC4FF44C
:100C1000C8710020FFF794FC2448FFF744FCC6226B
:100C200040F2CF710120FFF7DBFBFFF728FBFFF756
:100C300033FB1F4800211F4B0A46CDE900101E4917
:100C40001E48FFF7C3FB03211C4800F0D3F82CE03B
:100C50003220FFF745FFFFF706FB194908800846D9
:100C6000008800F0E7FC1749086017480088401C1E
:100C700015490880134801681048FFF749FB0F49E0
:100C8000886A00F0B7FC114908800C49C86900F077
:100C9000B1FC0F4908800949886A00F0ABFC0446A2
:100CA000224601210B4800F05EFAD1E7007DDAAC64
:100CB0000000F0410AD7233C8FC2753D1C00002084
:100CC00004000020080000200C000020100000207C
:100CD0000E00002000040040064A0A400243064B72
:100CE0001A6000BF00BF00BFBFF34F8F00BF00BF3F
:100CF00000BF704780FFFF1F08ED00E024494968EE
:100D000021F44041224A51601146096B21F480715F
:100D10001163052839D2DFE800F0030A14202C0003
:100D20001B49096B21F48071194A11632EE018499F
:100D30004968174A51601146096B41F4807111638B
:100D400024E01349496841F48041114A5160114639
:100D5000096B41F48071116318E00D49496841F451
:100D600000410B4A51601146096B41F480711163D7
:100D70000CE00749496841F44041054A5160114679
:100D8000096B41F48071116300E000BF00BF704740
:100D900000100240064A02EB9011096800F01F03A0
:100DA00001229A401143024B03EB901211607047ED
:100DB00000100240064A02EB9011096800F01F0380
:100DC00001229A409143024B03EB9012116070474D
:100DD00000100240064A02EB9011096800F01F0360
:100DE00001229A401143024B03EB901211607047AD
:100DF0000010024070B505460C46032C01DD0324AB
:100E000005E0034931F8140000F014FC686270BD7D
:100E1000AA190008194840681849486008464068FF
:100E200048600846406848600846406814490840E1
:100E3000124948600846406840F42010486008465F
:100E4000006840F08070086000BF0C48006800F047
:100E500000700028F9D00948406820F003000749D5
:100E600048600846406840F00200486000BF034800
:100E7000406800F00C000828F9D1704700100240CB
:100E8000FFFFC2F710B5FFF7C5FF10BD042808D15A
:100E90004FF0E021096941F004014FF0E0221161B7
:100EA00007E04FF0E021096921F004014FF0E02252
:100EB0001161704710B56FF00400FFF7E7FF0948B4
:100EC000006800F0B7FB0446074900F0D1FA074973
:100ED000086007490548006800F0F4FB0549086010
:100EE00010BD0000000000200024F44A140000207F
:100EF00000007A4418000020016841F08001016080
:100F00007047000010B531B1012945D002297DD0CC
:100F100003297CD1CBE0036A23F0010303628369D8
:100F200023F003038361036A146823430362036AA3
:100F300023F002030362036AD488234303626F4BE6
:100F4000984208D06E4B984205D06E4B984202D022
:100F50006D4B98421FD1036A23F004030362036AB6
:100F6000948823430362036A23F008030362036A3D
:100F7000148923430362436823F480734360436806
:100F8000548923434360436823F4007343604368F8
:100F9000948923434360AEE0036A23F010030362A5
:100FA000836923F440738361036A146843EA04137A
:100FB0000362036A23F020030362036AD48843EACE
:100FC000041303624D4B984226D1036A23F0400379
:100FD0000362036A948843EA04130362036A23F0FA
:100FE00080030362036A148943EA041303624368BB
:100FF00023F4806343604368548943EA8403436075
:10100000436823F400634360436801E011E071E04A
:10101000948943EA84034360394B984208D143687A
:1010200023F4806343604368548943EA8403436044
:1010300061E0036A23F480730362C36923F003034E
:10104000C361036A146843EA04230362036A23F456
:1010500000730362036AD48843EA04230362274BC4
:10106000984223D1036A23F480630362036A94885D
:1010700043EA04230362036A23F400630362036AFE
:10108000148943EA04230362436823F480534360D2
:101090004368548943EA04134360436823F40053CC
:1010A00043604368948943EA0413436023E0036A7E
:1010B00023F480530362C36923F44073C361036A5A
:1010C000146843EA04330362036A23F4005303629F
:1010D000036AD48843EA04330362084B984208D178
:1010E000436823F4804343604368548943EA84138C
:1010F000436000E000BF00BF10BD0000002C0140B5
:1011000000400140004401400048014031B1012944
:101110000CD0022913D0032922D118E0836923F0CF
:10112000700383618369134383611AE0836923F445
:10113000E0438361836943EA0223836111E0C36969
:1011400023F07003C361C3691343C36109E0C3693A
:1011500023F4E043C361C36943EA0223C36100E0AF
:1011600000BF00BF704731B1012906D0022906D067
:10117000032908D105E0426306E0826304E0C2630C
:1011800002E0026400E000BF00BF704731B10129F6
:101190000CD0022913D0032922D118E0836923F04F
:1011A000080383618369134383611AE0836923F42D
:1011B00000638361836943EA0223836111E0C369A9
:1011C00023F00803C361C3691343C36109E0C36922
:1011D00023F40063C361C36943EA0223C36100E0EF
:1011E00000BF00BF7047000010B504463349601AC5
:1011F0008C4217D00CDCB4F1804F1CD03048204416
:1012000010B3B0F5406F28D0B0F5E05F52D12DE0BB
:10121000B0F5A05F33D0B0F5C05F39D0B0F5E05F76
:1012200048D13EE040F20B30FFF7D4FD40F20B30E6
:10123000FFF7C0FD3FE04FF48060FFF7CBFD4FF4B8
:101240008060FFF7B7FD36E040F20140FFF7C2FDD6
:1012500040F20140FFF7AEFD2DE040F20440FFF701
:10126000B9FD40F20440FFF7A5FD24E04FF4816092
:10127000FFF7B0FD4FF48160FFF79CFD1BE04FF4DA
:101280004470FFF7A7FD4FF44470FFF793FD12E0A1
:1012900040F21130FFF79EFD40F21130FFF78AFD5A
:1012A00009E040F21230FFF795FD40F21230FFF7EF
:1012B00081FD00E000BF00BF10BD0000002C014018
:1012C00000FCFFBF016841F00101016070470000B0
:1012D0000A888262234A904205D0B0F1804F02D042
:1012E000214A90420BD1026822F07002026002682B
:1012F0004B881A43026002688B881A4302608A682E
:10130000C262184A904211D0B0F1804F0ED0164AF6
:1013100090420BD0154A904208D0154A904205D011
:10132000144A904202D0144A904207D1026822F433
:10133000407202600268CB881A430260094A9042F8
:1013400008D00B4A904205D00A4A904202D00A4A7D
:10135000904201D10A7B0263426942F0010242617C
:1013600070470000002C01400004004000200040B5
:10137000004001400044014000480140012904D1DF
:10138000426C42F40042426403E0426C22F40042A8
:101390004264704790EA010F48BF81F0004100F1BC
:1013A0009682421A3CBF801A89184FEAD0524FF0F9
:1013B0007F4C1CEA410FA2EBD15318BF9CEA026F8D
:1013C00000F03B804FF0004C4CEA00204CEA012139
:1013D00021FA03FC10EB0C0C1ED202F1FF325FEA83
:1013E0001C2040EBC25038BF70471CF07F0F4FEA03
:1013F000400C18BFBCF17F4F38BF7047C3F12003CA
:10140000994008BF20F00100BCF17F4F38BF704702
:10141000A0F1C04000F01DBA4FEA3C00000A40EBCA
:10142000C25028BF1CF0FF0F4FEA400CE6D018BF97
:10143000BCF17F4F38BF7047EAE79CEA026F05D0E6
:1014400010EA5C0F08BF00F00040704710B500F0D4
:10145000BAF900BF64FBBE3E401058BFC0F1404027
:10146000491058BFC1F140418142EFF300807047FD
:101470004FF47F0C1CEAD0121EBF1CEAD11392EA73
:101480000C0F93EA0C0F00F0858090EA010F48BF23
:1014900042F4807240F4000C41F400002CF07F41D3
:1014A00020F07F4000B58142A2EB03020FF2081C3E
:1014B000ACEB504EC0F100009EF800E04FEA4E0E3B
:1014C00000FB0EFC38BF49004FEA2C1C02F5FA0263
:1014D0000CFB0EF34FEACE1E4FEA112C4FEAC1214E
:1014E0000EEB635E42EB22420EFB0CFC4FEA1C53F8
:1014F00000FB03114FEA112C4FEA01310EFB0CFCEB
:101500004FEADC4C00FB0C11C14228BF09184CEB20
:1015100003335DF804EB10EB410143EBC250B2F52D
:101520007C0F38BF704729D512F0F00F1CBF00F1B7
:10153000C04000F000407047008182838485868728
:1015400088898B8C8D8E8F919293959697999A9C82
:101550009D9FA0A2A3A5A7A8AAACAEB0B2B3B5B7F1
:10156000B9BCBEC0C2C5C7C9CCCED1D4D7D9DCDFC7
:10157000E2E6E9ECF0F3F7FAFE0000004FEA400C77
:101580000CF1807CBCF17E4F28BF7047B0F1C040A9
:1015900000F05FB990EA010F0CEAD11348BF42F4A2
:1015A0008072624538BF634507D213F47F0F16D0AF
:1015B00080EA010000F00040704710B500F003F928
:1015C000097EFC3E00F005B880EA010000F0004012
:1015D000704780EA010000F0004000F03AB912F4D0
:1015E0007F0F04BF0248704780EA010000F031B964
:1015F0000000C07FC10DD1F19E0206DB4FEA00233F
:1016000043F0004323FA02F07047004207D54FEA47
:101610004001B1F1FE4F02D24FF00000704710B50B
:1016200000F0D1F849922480002070476FEA200032
:1016300070470000B0FA80F310FA03F2C3F19D0383
:101640000AD0D90501EB1220530638BF704700F1CC
:10165000010008BF20F001007047000050EA010CB3
:1016600000F113801CF5000F58BFBCF5000F01D42A
:101670008842704707D710F5000F58BF11F5000FCB
:1016800015D488427047894270471CF5000F04D575
:10169000BCF5000FF7D5814270474FF0807C1CEB02
:1016A000400F38BF1CEB410F01D28142704710B58B
:1016B00000F089F8922449004FF000504FF080511B
:1016C000FFF7CABE4FF47F0C1CEAD0121EBF1CEA03
:1016D000D11392EA0C0F93EA0C0F00F0478090EAC6
:1016E000010F48BF42F480724FF0004C4CEA0020DA
:1016F0004CEA012102EB0302A0FB0113A2F5000258
:10170000002918BF43F001035B0028BF4FEA3303F1
:1017100042EB22425FEA132C4CEBC2502EBFBCEBD3
:10172000436FB2F57C0F70474FEA036CBCF1004F7A
:1017300008BF20F00100B2F57C0F38BF70470BD511
:1017400082F0FF0212F5803FC8BF704700F1C04031
:10175000D8BF00F00040704700F5000C5FEA4C0C69
:1017600048BF7047B0F1C04000F073B890EA010F75
:101770000CEAD11348BF42F48072624538BF63451A
:1017800004D280EA010000F00040704710B500F07C
:101790001AF800BF8900013E00F007B800F009B850
:1017A0005FEA410C5FEA1C6C08D080EA010000F09F
:1017B00050B85FEA400C5FEA1C6CF6D14FF0004075
:1017C000A0F5800070470EF1020E2EF0030E5EF8B9
:1017D000044B244204D44FEA4102B2F17F4F11D8A6
:1017E0004FEA4003B3F17F4F0CD80ED14FEAD07CC3
:1017F000B2F17F4F0CEB4C0C0CF1020C08BF4CEB20
:10180000D17C04E04FF0080C01E04FEAD17C0CEBF6
:101810004C0324FA03F404F00704B4F1040C06D2D8
:101820000EEB840CBDE810404CF0010C6047DFE883
:101830000CF0070802024FF00040A0F5800010BD38
:101840000846420018BFD2F1807288BF00F0004005
:1018500010BDFF2141EAD050C005704751EA000C8D
:1018600000F113801CF5000F58BFBCF5000F01D428
:101870008142704707D711F5000F58BF10F5000FD0
:1018800015D481427047894270471CF5000F04D57A
:10189000BCF5000FF7D5884270474FF0807C1CEBF9
:1018A000410F38BF1CEB400F01D28842704780EADD
:1018B000010081EA000180EA0100FFF7F8BE0000A4
:1018C00090EA010F48BF81F000413FF56AAD421A2E
:1018D00004D882F00042A0EB020011444FEAD0523B
:1018E0004FF07F4C1CEA410FA2EBD15318BF9CEA8A
:1018F000026F4AD04FF0004C4CEA00204CEA012124
:1019000021FA03FCB0EB0C0C0FD412F0FE0F36D012
:101910005FEA4C001DD5001240EBC25038BF704743
:101920001CF03F0F18BF70470BE0A2F101025FEA05
:101930001C2040EBC25038BF70471CF07F0F18BF0F
:101940007047C3F12003994014BF401E20F00100EE
:10195000704780084FEA122308BF7047B0FA80FC36
:10196000A2EB0C02CCF1280C60FA0CF093EA122FD7
:1019700004BF00EBC25070474FEAC3707047130AB0
:101980005FEADC1008BF7047F6E79CEA026F04D0FC
:1019900010EA5C0F08BF0020704710B5FFF713FF77
:1019A00040DFF63E81F000407047F401200324043C
:1019B00046050000D4190008000000201C000000AB
:1019C0004C010008F01900081C0000208C080000E1
:1019D00068010008006CDC0200000000000000004C
:1019E00000000000000000000000000000000000F7
:0400000508000111DD
:00000001FF
