:020000040800F2
:100000009804002025010008A30400089B040008B0
:100010009F04000871040008650D0008000000003E
:10002000000000000000000000000000350800088B
:10003000990400080000000065060008810A000815
:100040003F0100083F0100083F0100083F01000890
:100050003F0100083F0100083F0100083F01000880
:100060003F0100083F0100083F0100083F01000870
:100070003F0100083F0100083F0100083F01000860
:100080003F0100083F010008000000003F01000898
:100090003F0100083F0100083F0100083F01000840
:1000A0003F0100083F0100083F010008610B000804
:1000B0003F010008000000003F01000800000000B0
:1000C0003F010008000000003F0100083F01000858
:1000D0003F0100083F0100083F0100080000000048
:1000E00000000000000000003F01000800000000C8
:1000F0000000000000000000000000000000000000
:100100003F01000800000000000000003F0100085F
:10011000DFF80CD000F04EF90048004759120008F3
:10012000980400200648804706480047FEE7FEE79F
:10013000FEE7FEE7FEE7FEE7FEE7FEE7FEE7FEE797
:10014000850A000811010008D2B201E000F8012B75
:10015000491EFBD270470022F6E710B513460A4647
:1001600004461946FFF7F0FF204610BDF0B480EAC0
:100170000102D40F4200B2EB410F02D20246084600
:1001800011464A0042D0C30DDDB2C1F3C752AD1AC9
:10019000202D35DAC1F3160141F4000204B15242B8
:1001A000C5F1200602FA06F12A411044B3EBD05FF4
:1001B00023D0C4B1012DA0EBC35009DCF0BC4FF03B
:1001C000004202EAC352DBB200F5000000F0C3B8FF
:1001D000400000F1807000EBC350A0F1807040EA55
:1001E000D170490009E0490841EAC071A0EBC35051
:1001F00000F50000400800EBC350F0BC00F0A2B8CE
:100200006142012202EB4101001BF6E7F0BC70479E
:1002100081F00041AAE780F00040A7E780EA0102F0
:1002200010B502F00043400022D04A001FD0010E5A
:1002300001EB1261C0F35600C2F3560240F4000015
:1002400042F40002A0FB022000047F39140400D015
:10025000401C50EA124001D44000491EC2B20C06B4
:1002600004EBD010401C4008802A02D003E000209C
:1002700010BD20F00100002900DA0020184310BD55
:1002800030B480EA010202F0004530F0004221F073
:10029000004013D090B1C30DD40DC2F31601C0F3CA
:1002A0001600E41A41F4000140F400027D3491424A
:1002B00001D3641C00E04900002C02DA30BC0020AD
:1002C00070474FF400000023914201D3891A034381
:1002D00040084FEA4101F7D151B1914202D14FF0AC
:1002E000004105E002D24FF0010101E06FF0010191
:1002F00003EBC450284430BC00F024B896230022FD
:10030000114600F028B820F00040C10DC0F31600DF
:1003100040F400007F2901DA00207047962903DCB1
:10032000C1F19601C8407047963988407047000077
:10033000002801DBC0F10040002901DBC1F10041D0
:10034000884270470029A8BF7047401C490008BF79
:1003500020F00100704710B4B0FA80FC00FA0CF0F5
:1003600050EA010404BF10BC704749B1CCF120042D
:1003700021FA04F411FA0CF118BF012121430843BA
:10038000A3EB0C01CB1D4FEA00614FEA102042BFE6
:10039000002010BC704700EBC35010440029A4BFDC
:1003A00010BC7047401C490008BF20F0010010BC81
:1003B00070470000064C074D06E0E06840F001037E
:1003C00094E8070098471034AC42F6D3FFF7A4FE38
:1003D000E42000080421000810B500F03FFD0120D2
:1003E00000F010FE022000F091FD00F005FE10BDAF
:1003F00010B540F2115001F0BDF902230022032193
:100400004FF0904000F0CCFE10BD10B540F20960F6
:1004100001F0B0F9032001F00DF8002000F002FD1A
:100420000121084600F0CEFC4FF46021012000F0CD
:100430004DFD012000F0E6FD0021012000F01CFD33
:1004400000214FF4807000F0F3FD0021022000F045
:10045000EFFD07220121002000F060FD00F0F4FC18
:1004600000F0FCFC0A2000F023FE00F08DFC10BD23
:1004700000BFFEE730B502460020002306E012F878
:10048000014B4440034D285D5C1CE3B28B42F6DB1C
:1004900030BD0000E21F0008704700BFFEE700BF4C
:1004A000FEE7704710B54FF4A06000F0A7FF0222EE
:1004B00011461B2000F04CFF0421044801F00CFD04
:1004C0000521024801F008FD10BD00000038014080
:1004D0002DE9F04704460D462946606AFFF798FE6D
:1004E000E0602168E068FFF799FE8046E168606996
:1004F000FFF73CFE606161686069FFF78FFE81462F
:10050000D4E90301FFF784FE0746A168FFF786FEE2
:100510000646D4E90501FFF70BFF02D2A06960612E
:100520000CE0A06980F0004738466169FFF700FFE2
:1005300004D21548A169FFF76BFE60614946404649
:10054000FFF714FE07463146FFF710FEE061D4E9DD
:100550000701FFF7EDFE02D2206AE0610BE0206A9E
:1005600080F000473846E169FFF7E2FE03D2206AD7
:1005700080F00040E061E0682061E169A06AFFF777
:10058000F5FDA062BDE8F0874802804E30B5DDE998
:1005900003450160426083608461056230BD0000F4
:1005A00070B588B004460D46164640F2125001F070
:1005B000E1F8202300220221284800F0F1FD202349
:1005C00003220021254800F012FE202201212348A9
:1005D00000F0AEFD40F2017001F0CCF8204801F0CF
:1005E000F3FAADF800400020ADF80200ADF80400C9
:1005F0000295ADF806008DF80C006946184801F028
:1006000057FB012004900020ADF81400ADF816004F
:10061000ADF81800ADF81A00ADF81C0004AA0121CD
:100620000F4801F05FF9324601210D4801F08BFAC5
:10063000702201210A4801F059FA002201210848DC
:1006400001F094FA0121064801F088FB044801F00A
:1006500043F9034801F026FB08B070BD00040048D0
:100660000004004070472DE9F041044600260027B1
:10067000002544F62060B4FBF0F0860944F62060C3
:10068000B4FBF0F0402101FB16073D4345EAC615D7
:100690002946012000F034F8BDE8F08110B540F2A1
:1006A000115001F067F80123002219464FF09040E5
:1006B00000F076FD0123032200214FF0904000F06E
:1006C00096FD01214FF0904000F063FD40F2125082
:1006D00001F050F82023002201214FF0904000F05B
:1006E0005FFD2023032200214FF0904000F07FFDAA
:1006F0002021024800F04BFD10BD0000000400481E
:100700002DE9F04105460E46002405F00F00044394
:1007100044F01004C6F3130044EA401408211448BE
:1007200000F035FD00271AE004F0010020B110218F
:100730000F4800F02EFD03E010210D4800F027FDCA
:100740004FF400414FF0904000F023FD4FF4004182
:100750004FF0904000F01BFD6408781CC7B2192FC1
:10076000E2DB0821024800F014FDBDE8F081000042
:100770000004004810B5044622461021014800F04C
:100780000AFD10BD0004004810B5044622460821A9
:10079000014800F000FD10BD0004004810B50446FB
:1007A00022464FF400414FF0904000F0F4FC10BDA1
:1007B00010B50120FFF7E8FF10BD000010B540F2B2
:1007C000115000F0D7FF40F2125000F0D3FF4FF469
:1007D0000043002201214FF0904000F0E1FC08238B
:1007E00000220121124800F0DBFC1023002201212D
:1007F0000F4800F0D5FC4FF40043032200214FF0D6
:10080000904000F0F4FC082303220021084800F087
:10081000EEFC102303220021054800F0E8FCFFF75E
:10082000C7FF0020FFF7BAFF0120FFF7A3FF10BDAD
:10083000000400487047000010B500F069FA0A484B
:1008400000F092F80849C91E087008460178C01CDB
:1008500000F03AFA20210448FFF77DFC002002490D
:10086000C91E087010BD00005700002010B500F030
:100870004FFA0A484178233000F012F8012801D1DC
:10088000FFF7DAFF202105482330FFF764FC002042
:1008900002494870887000F047FA10BD54000020EB
:1008A0002DE9F04705460E46002455E0285DAA28AC
:1008B00050D1601C285C55284CD1E01C295C301BB1
:1008C000001F814246DAE01C2F5C3A1DD1B2281984
:1008D000FFF7D0FD8046E01C3844401C15F800901E
:1008E000C14537D1A01C285C40101E4988710846BC
:1008F0008079062829D2DFE800F0280304090E1BBE
:1009000024E0201D285C174948701FE0201D285C4A
:10091000144988701AE0201D285C00021149888063
:1009200008468088611D695C08430E4988800DE097
:100930000C480078092804D1E01C285C0949C870DB
:1009400002E001200749C87000E000BF00BF01209D
:10095000BDE8F087601CC4B2F01EA042A6DC0020F7
:10096000F6E700001E00002070B50446002020704D
:10097000AA2060705520A07040488079E0703F4800
:100980008079012804D13D480078092800D1E07021
:100990003A4880790A2868D2DFE800F06705212FFD
:1009A0003D4F6767670600BF062020713348807897
:1009B000607132484078A0713048C078E0712F48AB
:1009C0008088001220722D48007960720721E01C97
:1009D000FFF750FDA0720020E0720C254BE00220D2
:1009E00020712648407860710321E01CFFF742FD2A
:1009F000A0710020E07108253DE0022020711F4811
:100A0000807860710321E01CFFF734FDA0710020A5
:100A1000E07108252FE0032020711848808800121B
:100A2000607116480079A0710421E01CFFF722FDD7
:100A3000E0710020207209251DE010480078092887
:100A40000DD1022020710D48C07860710321E01C97
:100A5000FFF710FDA0710020E071082504E00025DB
:100A600020212046FFF777FB05E0002520212046C6
:100A7000FFF771FB00BF00BF284670BD1E000020BD
:100A80007047000008B53248006840F00100304966
:100A9000086000BF2E48006800F002000028F9D06E
:100AA00000BF2B48406840F0800029494860002082
:100AB000009002E00098401C009000985028F9D364
:100AC0002348406840F09000214948600020009091
:100AD00002E00098401C009000985028F9D300BF15
:100AE0001B48406820F00300194948600846006828
:100AF00018490840164908600846406816490840E9
:100B00001349486008464068144908401049486045
:100B10000846406820F4400048600846C06A20F05B
:100B20000F00C8620846006B40F243118843084931
:100B300008630846406B20F001004863002088608D
:100B400000F090FE00214FF0006000F061FC08BD55
:100B500000100240FFFFF2FE0C00FF08FFFFC0F78D
:100B600010B51D491D4801F0CDF908B31A491B48BD
:100B700001F0BFF91A484078202812DA08214FF016
:100B8000904000F006FB154801F03BF9C1B2144853
:100B900042782330815423384078401C10494870F3
:100BA00006E00E4801F02DF9C1B20D4880F8421060
:100BB0000C490A4801F0A6F960B10A49074801F05A
:100BC00098F907484078002804DD00F0BBF80120C0
:100BD0000349887010BD000005000507003801407A
:100BE000540000200400040710B50446204600F01D
:100BF00005F8FFF757FC00F05BF810BD10B5044690
:100C000040F2115000F0B6FD40F20E6000F0B2FD6F
:100C10004FF40073012202214FF0904000F0C0FA1F
:100C20004FF40073012211464FF0904000F0DFFABC
:100C30004FF4007201214FF0904000F079FA1B4808
:100C400001F0E8F82146194801F094F8002117480E
:100C500001F0B7F90021154801F082F94FF4005175
:100C6000124801F09AF90021104801F01CF9002106
:100C70000E4801F00CF90D4801F0BAF80B4801F0EC
:100C80005DF90A4801F080F9084801F060F9042193
:100C9000064801F071F90821044801F08AF9034877
:100CA00001F0ECF8014801F0D5F810BD0038014022
:100CB00010B50421034801F05FF90021014801F05B
:100CC00078F910BD0038014070B504460D4610E0BB
:100CD000641C207800F012F807E040F20771064823
:100CE00001F0BDF8012800D100E0F6E700BF681E62
:100CF00085B2002DECD170BD0038014010B504461E
:100D00002146024801F082F810BD00000038014081
:100D100010B50021034801F02FF90821014801F026
:100D200048F910BD0038014010B50421044801F015
:100D3000D3F80521024801F0CFF8FFF7B9FF10BD45
:100D40000038014010B50421054801F0B8F805212C
:100D5000034801F0B4F80021014801F00DF910BD7D
:100D60000038014000BFFEE702E008C8121F08C1BA
:100D7000002AFAD170477047002001E001C1121F1C
:100D8000002AFBD1704700000D48006840F00800C1
:100D90000B49086000BF0A48006800F008000028FE
:100DA000F9D10748006840F004000549086000BF19
:100DB0000348006800F004000028F9D170470000E3
:100DC0000824014010B5012802D0022825D110E0E6
:100DD000134A126822F47002114B1A601A46126804
:100DE0004B1E4FF4700404EA03531A430C4B1A6071
:100DF00014E00B4A0C32126822F44012084B0C33F8
:100E00001A601A4612684B1E4FF4401404EA03534A
:100E10001A43034B0C331A6000E000BF00BF10BD43
:100E20002C24014030B10749096841F40061054AAA
:100E3000116005E00349096821F40061014A11606D
:100E400070470000082401400348006820F48070C7
:100E50000149086070470000082401400548006807
:100E600000F0010028B90348006840F00100014982
:100E7000086070470824014091B100F001022AB1D6
:100E8000114A126842F480120F4B1A6000F00202FD
:100E9000C2B10D4A126842F400420B4B1A6011E0D5
:100EA00000F001022AB1084A126822F48012064BAF
:100EB0001A6000F002022AB1034A126822F40042CA
:100EC000014B1A607047000008240140012802D03D
:100ED000022816D10AE00C4A126822F460220A4B5A
:100EE0001A601A4612680A431A600BE0064A126832
:100EF00022F4E042044B1A601A4612680A431A6050
:100F000000E000BF00BF70470824014002490968A3
:100F10008143014A116070470024014070B51446B6
:100F2000122900D1002106280ED2324D2A6800EB8A
:100F300080061F25B540AA4300EB800501FA05F5A0
:100F40002A432C4D2A602AE00C2812D2294D2D1F4D
:100F50002A68851F05EB85061F25B540AA43851F16
:100F600005EB850501FA05F52A43224D2D1F2A6060
:100F700015E0102813D21F4D083D2A68A0F10C057A
:100F800005EB85061F25B540AA43A0F10C0505EB2E
:100F9000850501FA05F52A43164D083D2A600A2900
:100FA00010D2144D243D2B6801EB41060725B540B6
:100FB000AB4301EB410504FA05F52B430D4D243DF0
:100FC0002B6015E0122913D20A4D283D2B68A1F1A0
:100FD0000A0505EB45060725B540AB43A1F10A0517
:100FE00005EB450504FA05F52B43024D283D2B6022
:100FF00070BD0000342401400148006880B2704791
:101000004C24014000F0010129B10849096841F46C
:101010008001064A116000F0020129B10349096804
:1010200041F40011014A116070470000082401409A
:10103000E9B100F480722AB11C4A126842F480724D
:101040001A4B1A6000F480622AB1184A126842F4FE
:101050008062164B1A6000F002022AB3134A121D76
:10106000126842F00202114B1B1D1A601CE000F4D2
:1010700080722AB10D4A126822F480720B4B1A60FA
:1010800000F480622AB1094A126822F48062074B98
:101090001A6000F002023AB1044A121D126822F0EE
:1010A0000202024B1B1D1A6070470000042401401D
:1010B0002DE9F04105462846FFF720F90746134879
:1010C00001683846FFF7AAF80646FFF71CF94FF00B
:1010D000E0214861002088610120086100BF4FF0D5
:1010E000E020046904F0010018B104F48030002805
:1010F000F5D04FF0E020006920F001004FF0E02132
:10110000086100208861BDE8F0810000180000201F
:10111000002107E042F6E06100BF0A1EA1F10103D1
:1011200099B2FAD1021EA0F1010398B2F2D1704730
:10113000F0B503461C6A5D6A00200DE0012686407A
:1011400016403EB187000F26BE40B443860001FA28
:1011500006F63443461CB0B20828EFD3082011E04D
:101160000126864016405EB1A0F10806B7000F26A2
:10117000BE40B543A0F10806B60001FA06F63543B5
:10118000461CB0B21028EBD31C625D62F0BD8162D8
:101190007047816170470AB1816100E081627047E8
:1011A000F0B504460D4616462168E268002019E0B5
:1011B000012787401F409FB14FEA400C032707FAE1
:1011C0000CF7B943470005FA07F739434FEA400CDB
:1011D000032707FA0CF7BA43470006FA07F73A4322
:1011E000471CB8B21028E3D32160E260F0BDF0B52F
:1011F0000C461546012C03D146681E43466002E0AA
:1012000046689E434660826800210DE001268E40BC
:101210001E403EB14F000326BE40B2434E0005FAC9
:1012200006F632434E1CB1B21029EFD38260F0BDF6
:1012300010B540F2115000F09DFA08230022012160
:101240004FF09040FFF7ACFF0823032200214FF03E
:101250009040FFF7CCFF10BD1CB500F01BFBFFF763
:10126000ADFAFFF71BFA4FF4C8710020FFF748FAF8
:101270002B48FFF7F8F9812240F2E7310320FFF70E
:101280008FF9FFF7B5F8FFF7C0F826480021264B85
:101290000A46CDE9001025492548FFF777F90321D3
:1012A000234800F097FAFFF7C3FF4FF49650FFF77B
:1012B0009BFCFFF7FDFC32E00A20FFF729FFFFF758
:1012C0008BF81C49088008460088FFF717F81A4970
:1012D00008601A480088401C1849088016480168B0
:1012E0001348FFF7F5F81249886AFFF70CF814491C
:1012F00008800F49C869FFF706F8124908800C49B1
:10130000886AFFF700F80446224601210E4800F0E3
:101310001AFC0E488078012801D1FFF7A7FACBE725
:10132000007DDAAC0000F0410AD7233C0AD7A33C89
:101330002800002004000020080000200C000020ED
:10134000100000200E000020000400405400002087
:101350002DE9F04103460D46164600240027A0461D
:101360002448006800F4E060B0F5A06F15D006DCFA
:10137000B0F5407F18D0B0F5806F19D110E0B0F50E
:10138000C06F06D0B0F5E06F12D100274FF004080F
:1013900015E001274FF0030811E00227B8460EE0E0
:1013A00003274FF001080AE004274FF0000806E089
:1013B0004FF4A06000F022F80227B84600BF00BF3B
:1013C000C7F1040005FA00F4C8F104010F20C84079
:1013D0003040044324010848C45403F01F01012095
:1013E00088405911890001F1E021C1F80001BDE8F0
:1013F000F08100000CED00E000E400E00249014350
:10140000024A1160704700000000FA050CED00E090
:10141000064A0A400243064B1A6000BF00BF00BFE5
:10142000BFF34F8F00BF00BF00BF704780FFFF1F9B
:1014300008ED00E02449496821F44041224A516006
:101440001146096B21F480711163052839D2DFE858
:1014500000F0030A14202C001B49096B21F4807151
:10146000194A11632EE018494968174A516011461C
:10147000096B41F48071116324E01349496841F418
:101480008041114A51601146096B41F4807111632A
:1014900018E00D49496841F400410B4A516011467A
:1014A000096B41F4807111630CE00749496841F40C
:1014B0004041054A51601146096B41F48071116346
:1014C00000E000BF00BF7047001002402DE9F04F60
:1014D0008FB004464FF0000CE046002000220025AB
:1014E0008146CDF838900021CDF83490CDF8309079
:1014F000CDF82C900023CDF82890CDF82490CDF88D
:101500002090002600270FF24C2999E8004CD9F8CA
:101510000C90CDE905BECDF810A0CDF81C900FF2CF
:10152000382ADAE9009ACDE9029A0FF22C2ADAE990
:10153000009ACDE9009ADFF82C92D9F80490C9F30B
:10154000810CBCF1000F06D0BCF1010F05D0BCF13D
:10155000020F3FD103E0844A3EE0834A3CE0DFF8DB
:101560000492D9F80490C9F38343DFF8F891D9F8CD
:101570000490C9F3C069CDF82890DDF82890B9F13E
:10158000000F01D0113300E09B1CDFF8D891D9F88F
:101590000490C9F30049CDF82490DDF82490B9F106
:1015A000000F12D0DFF8BC91D9F82C9009F00F0988
:1015B00009F10109CDF82090DFF8ACA1DDF8209009
:1015C000BAFBF9F909FB03F203E0DFF8A09103FB92
:1015D00009F201E0644A00BF00BFDFF88891D9F842
:1015E0000490C9F303160DF1100919F8067022FAD8
:1015F00007F5DFF87091D9F80490C9F302260DF1D0
:10160000080919F8067025FA07F9CDF83890DFF8BF
:101610005491D9F80490C9F3C2261DF8067025FA32
:1016200007F1072C72D2DFE804F00406080A0C4721
:101630005B00104689E0284687E00E9885E0084662
:1016400083E0DFF82091D9F8309009F48079B9F57A
:10165000807F04D0DFF81891CDF834902AE0DFF8CD
:101660000491D9F80490C9F38138B8F1000F09D07A
:10167000B8F1010F0BD0B8F1020F0DD0B8F1030F84
:1016800016D110E04FEA5109CDF8349011E04FEA3D
:101690009109CDF834900CE04FF00609B1FBF9F94F
:1016A000CDF8349005E04FEAD109CDF8349000E050
:1016B00000BF00BF0D9848E0DFF8A890D9F830903F
:1016C00009F04009B9F1400F04D048F21209CDF8F1
:1016D000309003E04FF40049CDF830900C9834E09E
:1016E000DFF88090D9F8309009F00309B9F1000FC4
:1016F00001D10B9126E0DFF86C90D9F8309009F019
:101700000309B9F1010F02D10B921BE01CE0DFF8D5
:101710005490D9F8309009F00309B9F1020F04D1BF
:101720004FF40049CDF82C900CE0DFF83890D9F850
:10173000309009F00309B9F1030F03D1DFF82890C5
:10174000CDF82C900B9800E000BF00BF0FB0BDE8B3
:10175000F08F000000000000000000000102030400
:10176000060708090010024000127A0000093D0037
:10177000809FD500064A02EB9011096800F01F0314
:1017800001229A401143024B03EB90121160704703
:1017900000100240064A02EB9011096800F01F0396
:1017A00001229A409143024B03EB90121160704763
:1017B00000100240064A02EB9011096800F01F0376
:1017C00001229A401143024B03EB901211607047C3
:1017D0000010024070B505460C46032C01DD0324C1
:1017E00005E0034931F81400FEF788FD686270BD1A
:1017F000DA1F0008194840681849486008464068E0
:1018000048600846406848600846406814490840F7
:10181000124948600846406840F420104860084675
:10182000006840F08070086000BF0C48006800F05D
:1018300000700028F9D00948406820F003000749EB
:1018400048600846406840F00200486000BF034816
:10185000406800F00C000828F9D1704700100240E1
:10186000FFFFC2F710B5FFF7C5FF10BD042808D170
:101870004FF0E021096941F004014FF0E0221161CD
:1018800007E04FF0E021096921F004014FF0E02268
:101890001161704710B56FF00400FFF7E7FF0948CA
:1018A0000068FEF72BFD04460749FEF7E9FC0749EF
:1018B0000860074905480068FEF7B0FC0549086064
:1018C00010BD0000000000200024F44A1400002095
:1018D00000007A4418000020016841F08001016096
:1018E0007047000010B531B1012945D002297DD0E3
:1018F00003297CD1CBE0036A23F0010303628369EF
:1019000023F003038361036A146823430362036AB9
:1019100023F002030362036AD488234303626F4BFC
:10192000984208D06E4B984205D06E4B984202D038
:101930006D4B98421FD1036A23F004030362036ACC
:10194000948823430362036A23F008030362036A53
:10195000148923430362436823F48073436043681C
:10196000548923434360436823F40073436043680E
:10197000948923434360AEE0036A23F010030362BB
:10198000836923F440738361036A146843EA041390
:101990000362036A23F020030362036AD48843EAE4
:1019A000041303624D4B984226D1036A23F040038F
:1019B0000362036A948843EA04130362036A23F010
:1019C00080030362036A148943EA041303624368D1
:1019D00023F4806343604368548943EA840343608B
:1019E000436823F400634360436801E011E071E061
:1019F000948943EA84034360394B984208D1436891
:101A000023F4806343604368548943EA840343605A
:101A100061E0036A23F480730362C36923F0030364
:101A2000C361036A146843EA04230362036A23F46C
:101A300000730362036AD48843EA04230362274BDA
:101A4000984223D1036A23F480630362036A948873
:101A500043EA04230362036A23F400630362036A14
:101A6000148943EA04230362436823F480534360E8
:101A70004368548943EA04134360436823F40053E2
:101A800043604368948943EA0413436023E0036A94
:101A900023F480530362C36923F44073C361036A70
:101AA000146843EA04330362036A23F400530362B5
:101AB000036AD48843EA04330362084B984208D18E
:101AC000436823F4804343604368548943EA8413A2
:101AD000436000E000BF00BF10BD0000002C0140CB
:101AE00000400140004401400048014031B101295B
:101AF0000CD0022913D0032922D118E0836923F0E6
:101B0000700383618369134383611AE0836923F45B
:101B1000E0438361836943EA0223836111E0C3697F
:101B200023F07003C361C3691343C36109E0C36950
:101B300023F4E043C361C36943EA0223C36100E0C5
:101B400000BF00BF704731B1012906D0022906D07D
:101B5000032908D105E0426306E0826304E0C26322
:101B600002E0026400E000BF00BF704731B101290C
:101B70000CD0022913D0032922D118E0836923F065
:101B8000080383618369134383611AE0836923F443
:101B900000638361836943EA0223836111E0C369BF
:101BA00023F00803C361C3691343C36109E0C36938
:101BB00023F40063C361C36943EA0223C36100E005
:101BC00000BF00BF7047000010B504463349601ADB
:101BD0008C4217D00CDCB4F1804F1CD0304820442C
:101BE00010B3B0F5406F28D0B0F5E05F52D12DE0D2
:101BF000B0F5A05F33D0B0F5C05F39D0B0F5E05F8D
:101C000048D13EE040F20B30FFF7D4FD40F20B30FC
:101C1000FFF7C0FD3FE04FF48060FFF7CBFD4FF4CE
:101C20008060FFF7B7FD36E040F20140FFF7C2FDEC
:101C300040F20140FFF7AEFD2DE040F20440FFF717
:101C4000B9FD40F20440FFF7A5FD24E04FF48160A8
:101C5000FFF7B0FD4FF48160FFF79CFD1BE04FF4F0
:101C60004470FFF7A7FD4FF44470FFF793FD12E0B7
:101C700040F21130FFF79EFD40F21130FFF78AFD70
:101C800009E040F21230FFF795FD40F21230FFF705
:101C900081FD00E000BF00BF10BD0000002C01402E
:101CA00000FCFFBF016841F00101016070470000C6
:101CB0000A888262234A904205D0B0F1804F02D058
:101CC000214A90420BD1026822F070020260026841
:101CD0004B881A43026002688B881A4302608A6844
:101CE000C262184A904211D0B0F1804F0ED0164A0D
:101CF00090420BD0154A904208D0154A904205D028
:101D0000144A904202D0144A904207D1026822F449
:101D1000407202600268CB881A430260094A90420E
:101D200008D00B4A904205D00A4A904202D00A4A93
:101D3000904201D10A7B0263426942F00102426192
:101D400070470000002C01400004004000200040CB
:101D5000004001400044014000480140012904D1F5
:101D6000426C42F40042426403E0426C22F40042BE
:101D7000426470472DE9F04704460D460027B846F7
:101D8000B94600261948204438B1B0F5744F09D13E
:101D90000620FFF79BFB074605E00220FFF796FBB6
:101DA000074600E000BF00BF206800F4004070B1AB
:101DB000780000EB5500B0FBF5F64FF6F07006EA40
:101DC0000008C6F3420948EA0900E0600CE007EBAE
:101DD0005500B0FBF5F64FF6F07006EA000806F085
:101DE0000F0948EA0900E060BDE8F08700BCFFBFCA
:101DF000016821F001010160416821F40061416046
:101E000070470146486AC0F308007047C1F30802F2
:101E10008262704710B504460D48204458B1B0F5B1
:101E2000744F11D140F20E30FFF7C4FC40F20E3077
:101E3000FFF7B0FC09E040F21140FFF7BBFC40F2B5
:101E40001140FFF7A7FC00E000BF00BF10BD00007D
:101E500000BCFFBF016841F001010160704710B58F
:101E6000024602EB9110006801F01F040123A34019
:101E7000184008B1012010BD0020FCE7016821F0E6
:101E800001010160816841F00801816070470268CA
:101E900022F001020260826822F40072826082688D
:101EA0000A4382607047026822F001020260826881
:101EB00022F48072826082680A438260704710B5A3
:101EC00000EB9112126801F01F040123A3409A4312
:101ED00000EB91131A6010BD10B500EB911212685F
:101EE00001F01F040123A3401A4300EB91131A6071
:101EF00010BD10B5026AC1F304440123A3401A4384
:101F0000026210BD70B5024600230024C1F389109F
:101F1000105801F01F060125B54000EA050302EB49
:101F200091500068C1F304460125B54000EA05045C
:101F300014B10BB1012070BD0020FCE7016821F055
:101F400001010160816821F0020181607047016830
:101F500021F001010160416821F480414160704736
:101F6000026822F001020260026822F4C06202608C
:101F700002680A4302607047026822F004020260AD
:101F800002680A4302607047016821F001010160A4
:101F9000816821F0200181607047026822F001020F
:101FA0000260426822F44052426042680A43426042
:101FB0007047026822F00802026002680A43026069
:101FC0007047026822F001020260026822F4805227
:101FD000026002680A4302607047D601EE02C00345
:101FE000D80400D57FAAFE2B815429FC5683D70242
:101FF000A87D52872DF8AC79D3067BAE04D18550ED
:10200000FA2FA471DB0E5A8F25F08D58F22773A694
:102010000CD9F623895C08DD77A2DF0AA07521F4CC
:102020005E8B9D48E23763B61CC9B461CB1E4A9FE4
:1020300035E0CF1AB06531E44E9BE633994C18CDAC
:1020400067B239EC4693C712B86D10C56FBAEE3B54
:1020500091446BBE14C19540EA3F42973DE8BC698C
:10206000C316EF3A904511C46EBBC613B96C38ED78
:102070004792BD68C21743963CE99441EB3E6ABF64
:1020800015C04B9E34E1B560CA1F62B71DC89C499C
:10209000E33619CC66B3E732984D30E54F9ACE1B44
:1020A000B16472A70DD88C59F3265B8E24F1A5700C
:1020B000DA0F20F55F8ADE0BA17409DC76A3F72224
:1020C000885DD603A97C28FD5782FF2A805501D45C
:1020D0007EAB8451FB2E7AAF05D0AD78D207538604
:1020E0002CF9000004210008000000202800000056
:1020F000680D00082C210008280000207004000052
:10210000780D0008006CDC020000000000000000F8
:1021100000000000000000000000000000000000BF
:0C212000000001000001E91600000000B2
:0400000508000111DD
:00000001FF
